:020000040000FA
:100000000C9461000C9473000C9473000C947300B6
:100010000C9473000C9473000C9473000C94730094
:100020000C9473000C9473000C9473000C94730084
:100030000C9473000C9473000C9473000C94730074
:100040000C944B010C9473000C9473000C9473008B
:100050000C9473000C9473000C9473000C94730054
:100060000C9473000C94730000000000240027001F
:100070002A0000000000250028002B0000000000DE
:1000800023002600290004040404040404040202DA
:100090000202020203030303030301020408102007
:1000A0004080010204081020010204081020000012
:1000B0000008000201000003040700000000000027
:1000C000000011241FBECFEFD8E0DEBFCDBF21E07E
:1000D000A0E0B1E001C01D92AA30B207E1F70E9492
:1000E00095010C943B020C940000833081F028F4BD
:1000F000813099F08230A9F008958730A9F08830D6
:10010000C9F08430B1F4809180008F7D03C080916C
:1001100080008F7780938000089584B58F7784BDA9
:10012000089584B58F7DFBCF8091B0008F77809349
:10013000B00008958091B0008F7DF9CFCF93DF9309
:10014000282F30E0F901E255FF4F8491F901E6567E
:10015000FF4FD491F901EA57FF4FC491CC23A1F08E
:1001600081110E947500EC2FF0E0EE0FFF1FE458A4
:10017000FF4FA591B491EC91ED2381E090E009F45B
:1001800080E0DF91CF91089580E090E0FACF1F9357
:10019000CF93DF93282F30E0F901E255FF4F849190
:1001A000F901E656FF4FD491F901EA57FF4FC49188
:1001B000CC23A9F0162F81110E947500EC2FF0E0DE
:1001C000EE0FFF1FEE58FF4FA591B4918FB7F89433
:1001D000EC91111108C0D095DE23DC938FBFDF9125
:1001E000CF911F910895DE2BF8CFCF93DF9390E04E
:1001F000FC01E656FF4F24918A579F4FFC018491E2
:100200008823D1F090E0880F991FFC01E859FF4F37
:10021000A591B491FC01EE58FF4FC591D491623085
:1002200071F49FB7F8943C91822F809583238C932F
:10023000E8812E2B28839FBFDF91CF9108958FB740
:10024000F894EC912E2B2C938FBFF6CF3FB7F894F8
:100250008091060190910701A0910801B0910901D8
:1002600026B5A89B05C02F3F19F00196A11DB11D11
:100270003FBFBA2FA92F982F8827BC01CD01620F4D
:10028000711D811D911D42E0660F771F881F991F08
:100290004A95D1F708951F920F920FB60F9211242D
:1002A0002F933F938F939F93AF93BF9380910201BE
:1002B00090910301A0910401B091050130910101D9
:1002C00023E0230F2D3758F50196A11DB11D209372
:1002D00001018093020190930301A0930401B09364
:1002E00005018091060190910701A0910801B0914C
:1002F00009010196A11DB11D80930601909307018C
:10030000A0930801B0930901BF91AF919F918F9184
:100310003F912F910F900FBE0F901F90189526E8D8
:10032000230F0296A11DB11DD2CF789484B58260AF
:1003300084BD84B5816084BD85B5826085BD85B589
:10034000816085BD80916E00816080936E00109207
:100350008100809181008260809381008091810082
:100360008160809381008091800081608093800013
:100370008091B10084608093B1008091B000816071
:100380008093B00080917A00846080937A0080919D
:100390007A00826080937A0080917A0081608093F5
:1003A0007A0080917A00806880937A001092C10070
:1003B00062E082E00E94F50061E089E00E94F500C1
:1003C00061E088E00E94F50062E087E00E94F500AD
:1003D00011E0C0E0D0E087E00E949E00892B71F51B
:1003E0000E9426014B015C0188ECC82ED12CE12C27
:1003F000F12C0E942601681979098A099B09683E37
:10040000734081059105A8F321E0C21AD108E108E3
:10041000F10888EE880E83E0981EA11CB11CC1145F
:10042000D104E104F10429F7809100018127809330
:10043000000187E00E949E00892BD9F382E00E9490
:100440009E0020910001222381F0019771F461E068
:1004500089E00E94C70061E088E00E94C700209701
:1004600009F4B9CF0E940000B6CF60E089E00E9495
:0A047000C70060E0F1CFF894FFCF61
:107E0000112484B714BE81FFF0D085E080938100F7
:107E100082E08093C00088E18093C10086E0809377
:107E2000C20080E18093C4008EE0C9D0259A86E02C
:107E300020E33CEF91E0309385002093840096BBD3
:107E4000B09BFECF1D9AA8958150A9F7CC24DD24C4
:107E500088248394B5E0AB2EA1E19A2EF3E0BF2EE7
:107E6000A2D0813461F49FD0082FAFD0023811F036
:107E7000013811F484E001C083E08DD089C08234E0
:107E800011F484E103C0853419F485E0A6D080C0E4
:107E9000853579F488D0E82EFF2485D0082F10E0AE
:107EA000102F00270E291F29000F111F8ED06801E7
:107EB0006FC0863521F484E090D080E0DECF843638
:107EC00009F040C070D06FD0082F6DD080E0C81688
:107ED00080E7D80618F4F601B7BEE895C0E0D1E017
:107EE00062D089930C17E1F7F0E0CF16F0E7DF06D8
:107EF00018F0F601B7BEE89568D007B600FCFDCFD4
:107F0000A601A0E0B1E02C9130E011968C91119780
:107F100090E0982F8827822B932B1296FA010C0160
:107F200087BEE89511244E5F5F4FF1E0A038BF0790
:107F300051F7F601A7BEE89507B600FCFDCF97BE46
:107F4000E89526C08437B1F42ED02DD0F82E2BD052
:107F50003CD0F601EF2C8F010F5F1F4F84911BD097
:107F6000EA94F801C1F70894C11CD11CFA94CF0C13
:107F7000D11C0EC0853739F428D08EE10CD085E9AC
:107F80000AD08FE07ACF813511F488E018D01DD067
:107F900080E101D065CF982F8091C00085FFFCCF94
:107FA0009093C60008958091C00087FFFCCF809118
:107FB000C00084FD01C0A8958091C6000895E0E648
:107FC000F0E098E1908380830895EDDF803219F02E
:107FD00088E0F5DFFFCF84E1DECF1F93182FE3DFCA
:107FE0001150E9F7F2DF1F91089580E0E8DFEE27F6
:047FF000FF270994CA
:027FFE00040479
:00000001FF
